{
  "contractName": "Adoption",
  "abi": [
    {
      "inputs": [],
      "stateMutability": "nonpayable",
      "type": "constructor"
    },
    {
      "inputs": [
        {
          "internalType": "uint256",
          "name": "",
          "type": "uint256"
        }
      ],
      "name": "pets",
      "outputs": [
        {
          "internalType": "uint256",
          "name": "id",
          "type": "uint256"
        },
        {
          "internalType": "string",
          "name": "name",
          "type": "string"
        },
        {
          "internalType": "uint256",
          "name": "price",
          "type": "uint256"
        },
        {
          "internalType": "address payable",
          "name": "owner",
          "type": "address"
        }
      ],
      "stateMutability": "view",
      "type": "function",
      "constant": true
    },
    {
      "inputs": [
        {
          "internalType": "uint256",
          "name": "petId",
          "type": "uint256"
        }
      ],
      "name": "adopt",
      "outputs": [],
      "stateMutability": "payable",
      "type": "function",
      "payable": true
    },
    {
      "inputs": [],
      "name": "getAllPets",
      "outputs": [
        {
          "components": [
            {
              "internalType": "uint256",
              "name": "id",
              "type": "uint256"
            },
            {
              "internalType": "string",
              "name": "name",
              "type": "string"
            },
            {
              "internalType": "uint256",
              "name": "price",
              "type": "uint256"
            },
            {
              "internalType": "address payable",
              "name": "owner",
              "type": "address"
            }
          ],
          "internalType": "struct Adoption.Pet[16]",
          "name": "",
          "type": "tuple[16]"
        }
      ],
      "stateMutability": "view",
      "type": "function",
      "constant": true
    }
  ],
  "bytecode": "0x60806040523480156200001157600080fd5b5060005b60108110156200014b576040518060800160405280828152602001620000876040518060400160405280600381526020017f50657400000000000000000000000000000000000000000000000000000000008152506200007b856200015260201b60201c565b6200029e60201b60201c565b815260200160008152602001600073ffffffffffffffffffffffffffffffffffffffff1681525060008260108110620000bc57fe5b60040201600082015181600001556020820151816001019080519060200190620000e8929190620002cc565b506040820151816002015560608201518160030160006101000a81548173ffffffffffffffffffffffffffffffffffffffff021916908373ffffffffffffffffffffffffffffffffffffffff160217905550905050808060010191505062000015565b506200042d565b606060008214156200019c576040518060400160405280600181526020017f3000000000000000000000000000000000000000000000000000000000000000815250905062000299565b600082905060005b60008214620001c9578080600101915050600a8281620001c057fe5b049150620001a4565b60008167ffffffffffffffff81118015620001e357600080fd5b506040519080825280601f01601f191660200182016040528015620002175781602001600182028036833780820191505090505b50905060008290505b600086146200029157600181039050600a86816200023a57fe5b0660300160f81b8282815181106200024e57fe5b60200101907effffffffffffffffffffffffffffffffffffffffffffffffffffffffffffff1916908160001a905350600a86816200028857fe5b04955062000220565b819450505050505b919050565b60608282604051602001620002b5929190620003b9565b604051602081830303815290604052905092915050565b828054600181600116156101000203166002900490600052602060002090601f01602090048101928262000304576000855562000350565b82601f106200031f57805160ff191683800117855562000350565b8280016001018555821562000350579182015b828111156200034f57825182559160200191906001019062000332565b5b5090506200035f919062000363565b5090565b5b808211156200037e57600081600090555060010162000364565b5090565b60006200038f82620003e1565b6200039b8185620003ec565b9350620003ad818560208601620003f7565b80840191505092915050565b6000620003c7828562000382565b9150620003d5828462000382565b91508190509392505050565b600081519050919050565b600081905092915050565b60005b8381101562000417578082015181840152602081019050620003fa565b8381111562000427576000848401525b50505050565b610937806200043d6000396000f3fe6080604052600436106100345760003560e01c80635b236d97146100395780638588b2c514610064578063cfb869bf14610080575b600080fd5b34801561004557600080fd5b5061004e6100c0565b60405161005b9190610762565b60405180910390f35b61007e6004803603810190610079919061051f565b61021e565b005b34801561008c57600080fd5b506100a760048036038101906100a2919061051f565b6103b0565b6040516100b794939291906107c4565b60405180910390f35b6100c861049e565b6000601080602002604051908101604052809291906000905b828210156102155783826004020160405180608001604052908160008201548152602001600182018054600181600116156101000203166002900480601f01602080910402602001604051908101604052809291908181526020018280546001816001161561010002031660029004801561019d5780601f106101725761010080835404028352916020019161019d565b820191906000526020600020905b81548152906001019060200180831161018057829003601f168201915b50505050508152602001600282015481526020016003820160009054906101000a900473ffffffffffffffffffffffffffffffffffffffff1673ffffffffffffffffffffffffffffffffffffffff1673ffffffffffffffffffffffffffffffffffffffff1681525050815260200190600101906100e1565b50505050905090565b600081101580156102305750600f8111155b61026f576040517f08c379a0000000000000000000000000000000000000000000000000000000008152600401610266906107a4565b60405180910390fd5b6000816010811061027c57fe5b60040201600201543410156102c6576040517f08c379a00000000000000000000000000000000000000000000000000000000081526004016102bd90610784565b60405180910390fd5b600081601081106102d357fe5b6004020160030160009054906101000a900473ffffffffffffffffffffffffffffffffffffffff1673ffffffffffffffffffffffffffffffffffffffff166108fc349081150290604051600060405180830381858888f19350505050158015610340573d6000803e3d6000fd5b50336000826010811061034f57fe5b6004020160030160006101000a81548173ffffffffffffffffffffffffffffffffffffffff021916908373ffffffffffffffffffffffffffffffffffffffff16021790555060008082601081106103a257fe5b600402016002018190555050565b600081601081106103c057600080fd5b60040201600091509050806000015490806001018054600181600116156101000203166002900480601f0160208091040260200160405190810160405280929190818152602001828054600181600116156101000203166002900480156104685780601f1061043d57610100808354040283529160200191610468565b820191906000526020600020905b81548152906001019060200180831161044b57829003601f168201915b5050505050908060020154908060030160009054906101000a900473ffffffffffffffffffffffffffffffffffffffff16905084565b6040518061020001604052806010905b6104b66104cc565b8152602001906001900390816104ae5790505090565b6040518060800160405280600081526020016060815260200160008152602001600073ffffffffffffffffffffffffffffffffffffffff1681525090565b600081359050610519816108ea565b92915050565b60006020828403121561053157600080fd5b600061053f8482850161050a565b91505092915050565b600061055483836106e1565b905092915050565b6105658161086a565b82525050565b6105748161086a565b82525050565b60006105858261081a565b61058f818561083d565b9350836020820285016105a185610810565b8060005b858110156105dd57848403895281516105be8582610548565b94506105c983610830565b925060208a019950506001810190506105a5565b50829750879550505050505092915050565b60006105fa82610825565b6106048185610848565b93506106148185602086016108a6565b61061d816108d9565b840191505092915050565b600061063382610825565b61063d8185610859565b935061064d8185602086016108a6565b610656816108d9565b840191505092915050565b600061066e601f83610859565b91507f53656e74206574686572206d75737420636f76657220746865207072696365006000830152602082019050919050565b60006106ae601e83610859565b91507f506574204944206d7573742077697468696e2076616c69642072616e676500006000830152602082019050919050565b60006080830160008301516106f96000860182610744565b506020830151848203602086015261071182826105ef565b91505060408301516107266040860182610744565b506060830151610739606086018261055c565b508091505092915050565b61074d8161089c565b82525050565b61075c8161089c565b82525050565b6000602082019050818103600083015261077c818461057a565b905092915050565b6000602082019050818103600083015261079d81610661565b9050919050565b600060208201905081810360008301526107bd816106a1565b9050919050565b60006080820190506107d96000830187610753565b81810360208301526107eb8186610628565b90506107fa6040830185610753565b610807606083018461056b565b95945050505050565b6000819050919050565b600060109050919050565b600081519050919050565b6000602082019050919050565b600081905092915050565b600082825260208201905092915050565b600082825260208201905092915050565b60006108758261087c565b9050919050565b600073ffffffffffffffffffffffffffffffffffffffff82169050919050565b6000819050919050565b60005b838110156108c45780820151818401526020810190506108a9565b838111156108d3576000848401525b50505050565b6000601f19601f8301169050919050565b6108f38161089c565b81146108fe57600080fd5b5056fea2646970667358221220a58ddee07ba11f052ab02127c615e405ed85db17135a59709ca6b6953a7c1f4964736f6c63430007060033",
  "immutableReferences": {},
  "source": "// SPDX-License-Identifier: GPL-3.0\r\npragma solidity >=0.4.16 <0.9.0;\r\npragma abicoder v2;\r\n\r\ncontract Adoption {\r\n    // \r\n    struct Pet {\r\n        uint id;\r\n        string name;\r\n        uint price;\r\n        address payable owner;\r\n    }\r\n    Pet[16] public pets;\r\n\r\n    constructor() {\r\n        for(uint i = 0; i < 16; i ++){\r\n            pets[i] = Pet(i, concat(\"Pet\", uint2str(i)), 0, payable(address(0)));\r\n        }\r\n    }\r\n\r\n    // \r\n    function adopt(uint petId) public payable {\r\n        require(petId >= 0 && petId <= 15, \"Pet ID must within valid range\");\r\n        require(msg.value >= pets[petId].price, \"Sent ether must cover the price\");\r\n        pets[petId].owner.transfer(msg.value);\r\n        pets[petId].owner = payable(msg.sender);\r\n        pets[petId].price = 0;\r\n    }\r\n\r\n    function getAllPets() public view returns (Pet [16] memory) {\r\n        return pets;\r\n    }\r\n\r\n    function uint2str(uint i) internal pure returns (string memory) {\r\n        if(i == 0){\r\n            return \"0\";\r\n        }\r\n        uint j = i;\r\n        uint length;\r\n        while(j != 0){\r\n            length ++;\r\n            j /= 10;\r\n        }\r\n        bytes memory bstr = new bytes(length);\r\n        uint k = length;\r\n        while(i != 0){\r\n            k -= 1;\r\n            bstr[k] = bytes1(uint8(48 + i % 10));\r\n            i /= 10;\r\n        }\r\n        return string(bstr);\r\n    }\r\n    function concat(string memory a, string memory b) internal pure returns (string memory) {\r\n        return string(abi.encodePacked(a, b));\r\n    }\r\n}\r\n",
  "sourcePath": "E:\\\\\\code\\pet-shop\\contracts\\Adoption.sol",
  "compiler": {
    "name": "solc",
    "version": "0.7.6+commit.7338295f.Emscripten.clang"
  },
  "schemaVersion": "3.4.16",
  "updatedAt": "2024-04-29T08:08:22.935Z",
  "networkType": "ethereum",
  "devdoc": {
    "kind": "dev",
    "methods": {},
    "version": 1
  },
  "userdoc": {
    "kind": "user",
    "methods": {},
    "version": 1
  }
}